{
  "contractName": "BirthdayGift",
  "abi": [
    {
      "payable": true,
      "stateMutability": "payable",
      "type": "fallback"
    },
    {
      "constant": false,
      "inputs": [
        {
          "name": "birthdayeeAddress",
          "type": "address"
        }
      ],
      "name": "giveTo",
      "outputs": [],
      "payable": true,
      "stateMutability": "payable",
      "type": "function"
    },
    {
      "constant": true,
      "inputs": [],
      "name": "viewMyGift",
      "outputs": [
        {
          "name": "balance",
          "type": "uint256"
        }
      ],
      "payable": false,
      "stateMutability": "view",
      "type": "function"
    },
    {
      "constant": true,
      "inputs": [],
      "name": "viewPoolBalance",
      "outputs": [
        {
          "name": "balance",
          "type": "uint256"
        }
      ],
      "payable": false,
      "stateMutability": "view",
      "type": "function"
    },
    {
      "constant": false,
      "inputs": [],
      "name": "collectMyGift",
      "outputs": [
        {
          "name": "payout",
          "type": "uint256"
        }
      ],
      "payable": false,
      "stateMutability": "nonpayable",
      "type": "function"
    }
  ],
  "bytecode": "0x6060604052600080556000600155341561001857600080fd5b610468806100276000396000f300606060405260043610610062576000357c0100000000000000000000000000000000000000000000000000000000900463ffffffff16806363e4bff41461007357806372f89d4e146100a1578063cf1ffd7b146100ca578063d5d319c8146100f3575b346000808282540192505081905550005b61009f600480803573ffffffffffffffffffffffffffffffffffffffff1690602001909190505061011c565b005b34156100ac57600080fd5b6100b46101ed565b6040518082815260200191505060405180910390f35b34156100d557600080fd5b6100dd6101fd565b6040518082815260200191505060405180910390f35b34156100fe57600080fd5b610106610349565b6040518082815260200191505060405180910390f35b3361012681610352565b15610199576001600260008373ffffffffffffffffffffffffffffffffffffffff1673ffffffffffffffffffffffffffffffffffffffff16815260200190815260200160002060020160006101000a81548160ff0219169083151502179055506001600081548092919060010191905055505b34600260008473ffffffffffffffffffffffffffffffffffffffff1673ffffffffffffffffffffffffffffffffffffffff168152602001908152602001600020600101600082825401925050819055505050565b60006101f8336103bc565b905090565b60003361020981610352565b1561027c576001600260008373ffffffffffffffffffffffffffffffffffffffff1673ffffffffffffffffffffffffffffffffffffffff16815260200190815260200160002060020160006101000a81548160ff0219169083151502179055506001600081548092919060010191905055505b610285336103bc565b915060008211151561029657600080fd5b61029f33610431565b15610340576000600260003373ffffffffffffffffffffffffffffffffffffffff1673ffffffffffffffffffffffffffffffffffffffff168152602001908152602001600020600101819055508160008082825403925050819055503373ffffffffffffffffffffffffffffffffffffffff166108fc839081150290604051600060405180830381858888f19350505050151561033b57600080fd5b610345565b600091505b5090565b60008054905090565b6000600260008373ffffffffffffffffffffffffffffffffffffffff1673ffffffffffffffffffffffffffffffffffffffff16815260200190815260200160002060020160009054906101000a900460ff16156103b257600190506103b7565b600090505b919050565b6000600260008373ffffffffffffffffffffffffffffffffffffffff1673ffffffffffffffffffffffffffffffffffffffff1681526020019081526020016000206001015490506001543073ffffffffffffffffffffffffffffffffffffffff163181151561042757fe5b0481019050919050565b6000600190509190505600a165627a7a7230582051aea08040ae08ccf5ca754d4d3271fbf7919417bbff85e4ac3dbab646320a860029",
  "source": "pragma solidity ^0.4.0;\n\n// Example Contract that contributors can give birthday gifts to wallet(s)\n\n// Gifter can send money to all pool\n// Gifter can send to specifc address\n// Birthdayee can see funds\n// Birthdayee will not be transfered until birthday\n\ncontract BirthdayGift {\n\n    uint private giftAllBalance = 0;\n    uint private numOfWallets = 0;\n\n    struct Birthdayee {\n        // fix int\n        uint birthDate;\n        // fix int\n        uint balance;\n        // Used to see if address has been initialized\n        bool isInitialized;\n    }\n    \n    // All participants\n    mapping (address => Birthdayee) private birthdayPool;\n    \n    // If the wallet hasn't been initialized, then do so and increment counter\n    modifier walletCheck(address birthdayeeAddress) {\n        if ( isNewAddress(birthdayeeAddress) ) {\n            birthdayPool[birthdayeeAddress].isInitialized = true;\n            numOfWallets++;\n        }\n        _;\n    }\n    \n    function isItTheirBirthday(address birthdayeeAddress) private pure returns(bool) {\n        // for now, return true - need to work on dates\n        return true;\n    }\n\n    // function to control counts of poolf members\n    function isNewAddress(address birthdayeeAddress) private view returns(bool) {\n        // Has the wallet been initialized?\n        if ( birthdayPool[birthdayeeAddress].isInitialized ) {\n            return true;\n        }\n        return false;\n    }\n    \n    function getGiftBalance(address walletAddress) private view returns(uint payout) {\n        payout = birthdayPool[walletAddress].balance;\n        payout += this.balance / numOfWallets;\n    }\n    \n    // Give to a specific wallet\n    function giveTo(address birthdayeeAddress) public payable walletCheck(msg.sender) {\n        birthdayPool[birthdayeeAddress].balance += msg.value;\n    }\n    \n    // View Birthdayee balance assigned and from pool\n    function viewMyGift() public view returns (uint balance) {\n        balance = getGiftBalance(msg.sender);\n    }\n    \n    // View Pool balance\n    function viewPoolBalance() public view returns (uint balance) {\n        balance = giftAllBalance;\n    }\n    \n    // Collect birthday gift if within two weeks of birthday\n    function collectMyGift() public walletCheck(msg.sender) returns (uint payout) {\n        payout = getGiftBalance(msg.sender);\n        require (payout > 0);\n        if ( isItTheirBirthday(msg.sender) ) {\n            birthdayPool[msg.sender].balance = 0;\n            giftAllBalance -= payout;\n            msg.sender.transfer(payout);\n        } else {\n            payout = 0;\n        }\n    }\n    \n    // Anon function for paying to the pool\n    // Give to birthday pool because nice people do exist\n    function () public payable {\n        giftAllBalance += msg.value;\n    }\n\n\n}   ",
  "sourcePath": "/Users/andrew/blockchain/birthday-gift-dapp/contracts/BirthdayGift.sol",
  "compiler": {
    "name": "solc",
    "version": "0.4.19+commit.c4cbbb05.Emscripten.clang"
  },
  "schemaVersion": "1.0.1",
  "updatedAt": "2018-02-10T21:11:28.157Z"
}